{
  "contractName": "Lottery",
  "abi": [
    {
      "inputs": [
        {
          "internalType": "address",
          "name": "_ethUsdPriceFeed",
          "type": "address"
        },
        {
          "internalType": "address",
          "name": "_vrfCoordinator",
          "type": "address"
        },
        {
          "internalType": "address",
          "name": "_link",
          "type": "address"
        },
        {
          "internalType": "bytes32",
          "name": "_keyHash",
          "type": "bytes32"
        }
      ],
      "stateMutability": "nonpayable",
      "type": "constructor"
    },
    {
      "anonymous": false,
      "inputs": [
        {
          "indexed": true,
          "internalType": "address",
          "name": "previousOwner",
          "type": "address"
        },
        {
          "indexed": true,
          "internalType": "address",
          "name": "newOwner",
          "type": "address"
        }
      ],
      "name": "OwnershipTransferred",
      "type": "event"
    },
    {
      "anonymous": false,
      "inputs": [
        {
          "indexed": false,
          "internalType": "bytes32",
          "name": "requestId",
          "type": "bytes32"
        }
      ],
      "name": "RequestedRandomness",
      "type": "event"
    },
    {
      "inputs": [],
      "name": "fee",
      "outputs": [
        {
          "internalType": "uint256",
          "name": "",
          "type": "uint256"
        }
      ],
      "stateMutability": "view",
      "type": "function"
    },
    {
      "inputs": [],
      "name": "keyHash",
      "outputs": [
        {
          "internalType": "bytes32",
          "name": "",
          "type": "bytes32"
        }
      ],
      "stateMutability": "view",
      "type": "function"
    },
    {
      "inputs": [],
      "name": "lotteryState",
      "outputs": [
        {
          "internalType": "enum Lottery.LOTTERY_STATE",
          "name": "",
          "type": "uint8"
        }
      ],
      "stateMutability": "view",
      "type": "function"
    },
    {
      "inputs": [],
      "name": "owner",
      "outputs": [
        {
          "internalType": "address",
          "name": "",
          "type": "address"
        }
      ],
      "stateMutability": "view",
      "type": "function"
    },
    {
      "inputs": [
        {
          "internalType": "uint256",
          "name": "",
          "type": "uint256"
        }
      ],
      "name": "players",
      "outputs": [
        {
          "internalType": "address payable",
          "name": "",
          "type": "address"
        }
      ],
      "stateMutability": "view",
      "type": "function"
    },
    {
      "inputs": [],
      "name": "randomness",
      "outputs": [
        {
          "internalType": "uint256",
          "name": "",
          "type": "uint256"
        }
      ],
      "stateMutability": "view",
      "type": "function"
    },
    {
      "inputs": [
        {
          "internalType": "bytes32",
          "name": "requestId",
          "type": "bytes32"
        },
        {
          "internalType": "uint256",
          "name": "randomness",
          "type": "uint256"
        }
      ],
      "name": "rawFulfillRandomness",
      "outputs": [],
      "stateMutability": "nonpayable",
      "type": "function"
    },
    {
      "inputs": [],
      "name": "recentWinners",
      "outputs": [
        {
          "internalType": "address",
          "name": "",
          "type": "address"
        }
      ],
      "stateMutability": "view",
      "type": "function"
    },
    {
      "inputs": [],
      "name": "renounceOwnership",
      "outputs": [],
      "stateMutability": "nonpayable",
      "type": "function"
    },
    {
      "inputs": [
        {
          "internalType": "address",
          "name": "newOwner",
          "type": "address"
        }
      ],
      "name": "transferOwnership",
      "outputs": [],
      "stateMutability": "nonpayable",
      "type": "function"
    },
    {
      "inputs": [],
      "name": "usdEntryFee",
      "outputs": [
        {
          "internalType": "uint256",
          "name": "",
          "type": "uint256"
        }
      ],
      "stateMutability": "view",
      "type": "function"
    },
    {
      "inputs": [],
      "name": "enter",
      "outputs": [],
      "stateMutability": "payable",
      "type": "function"
    },
    {
      "inputs": [],
      "name": "getEntranceFee",
      "outputs": [
        {
          "internalType": "uint256",
          "name": "",
          "type": "uint256"
        }
      ],
      "stateMutability": "view",
      "type": "function"
    },
    {
      "inputs": [],
      "name": "getLatestEthUsdPrice",
      "outputs": [
        {
          "internalType": "uint256",
          "name": "",
          "type": "uint256"
        }
      ],
      "stateMutability": "view",
      "type": "function"
    },
    {
      "inputs": [],
      "name": "startLottery",
      "outputs": [],
      "stateMutability": "nonpayable",
      "type": "function"
    },
    {
      "inputs": [
        {
          "internalType": "uint256",
          "name": "userProvidedSeed",
          "type": "uint256"
        }
      ],
      "name": "endLottery",
      "outputs": [],
      "stateMutability": "nonpayable",
      "type": "function"
    }
  ],
  "bytecode": "0x60c060405234801561001057600080fd5b5060405161182f38038061182f8339818101604052608081101561003357600080fd5b810190808051906020019092919080519060200190929190805190602001909291908051906020019092919050505082828173ffffffffffffffffffffffffffffffffffffffff1660a08173ffffffffffffffffffffffffffffffffffffffff1660601b815250508073ffffffffffffffffffffffffffffffffffffffff1660808173ffffffffffffffffffffffffffffffffffffffff1660601b81525050505060006100e461020e60201b60201c565b905080600160006101000a81548173ffffffffffffffffffffffffffffffffffffffff021916908373ffffffffffffffffffffffffffffffffffffffff1602179055508073ffffffffffffffffffffffffffffffffffffffff16600073ffffffffffffffffffffffffffffffffffffffff167f8be0079c531659141344cd1fd0a4f28419497f9722a3daafe3b4186f6b6457e060405160405180910390a35083600260006101000a81548173ffffffffffffffffffffffffffffffffffffffff021916908373ffffffffffffffffffffffffffffffffffffffff160217905550603260038190555060018060146101000a81548160ff021916908360028111156101ea57fe5b021790555067016345785d8a00006007819055508060088190555050505050610216565b600033905090565b60805160601c60a05160601c6115eb61024460003980610a3c528061119852508061115c52506115eb6000f3fe6080604052600436106100f35760003560e01c806388ab139a1161008a578063e75303a511610059578063e75303a514610338578063e97dcb621461038f578063f2fde38b14610399578063f71d96cb146103ea576100f3565b806388ab139a146102465780638da5cb5b1461027157806394985ddd146102c8578063ddca3f431461030d576100f3565b80633739e769116100c65780633739e7691461019057806361728f39146101cb5780636939864b146101f6578063715018a61461022f576100f3565b806309bc33a7146100f8578063160344e214610123578063302145991461013a5780633601318914610165575b600080fd5b34801561010457600080fd5b5061010d610465565b6040518082815260200191505060405180910390f35b34801561012f57600080fd5b5061013861049f565b005b34801561014657600080fd5b5061014f610617565b6040518082815260200191505060405180910390f35b34801561017157600080fd5b5061017a610700565b6040518082815260200191505060405180910390f35b34801561019c57600080fd5b506101c9600480360360208110156101b357600080fd5b8101908080359060200190929190505050610706565b005b3480156101d757600080fd5b506101e0610881565b6040518082815260200191505060405180910390f35b34801561020257600080fd5b5061020b610887565b6040518082600281111561021b57fe5b60ff16815260200191505060405180910390f35b34801561023b57600080fd5b5061024461089a565b005b34801561025257600080fd5b5061025b610a0a565b6040518082815260200191505060405180910390f35b34801561027d57600080fd5b50610286610a10565b604051808273ffffffffffffffffffffffffffffffffffffffff1673ffffffffffffffffffffffffffffffffffffffff16815260200191505060405180910390f35b3480156102d457600080fd5b5061030b600480360360408110156102eb57600080fd5b810190808035906020019092919080359060200190929190505050610a3a565b005b34801561031957600080fd5b50610322610b09565b6040518082815260200191505060405180910390f35b34801561034457600080fd5b5061034d610b0f565b604051808273ffffffffffffffffffffffffffffffffffffffff1673ffffffffffffffffffffffffffffffffffffffff16815260200191505060405180910390f35b610397610b35565b005b3480156103a557600080fd5b506103e8600480360360208110156103bc57600080fd5b81019080803573ffffffffffffffffffffffffffffffffffffffff169060200190929190505050610c49565b005b3480156103f657600080fd5b506104236004803603602081101561040d57600080fd5b8101908080359060200190929190505050610e3e565b604051808273ffffffffffffffffffffffffffffffffffffffff1673ffffffffffffffffffffffffffffffffffffffff16815260200191505060405180910390f35b600080670de0b6b3a76400009050600061047d610617565b90506000629896806003540282848161049257fe5b0402905080935050505090565b6104a7610e7a565b73ffffffffffffffffffffffffffffffffffffffff166104c5610a10565b73ffffffffffffffffffffffffffffffffffffffff161461054e576040517f08c379a00000000000000000000000000000000000000000000000000000000081526004018080602001828103825260208152602001807f4f776e61626c653a2063616c6c6572206973206e6f7420746865206f776e657281525060200191505060405180910390fd5b6001600281111561055b57fe5b600160149054906101000a900460ff16600281111561057657fe5b146105e9576040517f08c379a00000000000000000000000000000000000000000000000000000000081526004018080602001828103825260198152602001807f43616e27742073746172742061206e6577206c6f74746572790000000000000081525060200191505060405180910390fd5b6000600160146101000a81548160ff0219169083600281111561060857fe5b02179055506000600681905550565b600080600080600080600260009054906101000a900473ffffffffffffffffffffffffffffffffffffffff1673ffffffffffffffffffffffffffffffffffffffff1663feaf968c6040518163ffffffff1660e01b815260040160a06040518083038186803b15801561068857600080fd5b505afa15801561069c573d6000803e3d6000fd5b505050506040513d60a08110156106b257600080fd5b81019080805190602001909291908051906020019092919080519060200190929190805190602001909291908051906020019092919050505094509450945094509450839550505050505090565b60065481565b61070e610e7a565b73ffffffffffffffffffffffffffffffffffffffff1661072c610a10565b73ffffffffffffffffffffffffffffffffffffffff16146107b5576040517f08c379a00000000000000000000000000000000000000000000000000000000081526004018080602001828103825260208152602001807f4f776e61626c653a2063616c6c6572206973206e6f7420746865206f776e657281525060200191505060405180910390fd5b600060028111156107c257fe5b600160149054906101000a900460ff1660028111156107dd57fe5b14610850576040517f08c379a00000000000000000000000000000000000000000000000000000000081526004018080602001828103825260158152602001807f43616e277420656e64206c6f747465727920796574000000000000000000000081525060200191505060405180910390fd5b6002600160146101000a81548160ff0219169083600281111561086f57fe5b021790555061087d81610e82565b5050565b60085481565b600160149054906101000a900460ff1681565b6108a2610e7a565b73ffffffffffffffffffffffffffffffffffffffff166108c0610a10565b73ffffffffffffffffffffffffffffffffffffffff1614610949576040517f08c379a00000000000000000000000000000000000000000000000000000000081526004018080602001828103825260208152602001807f4f776e61626c653a2063616c6c6572206973206e6f7420746865206f776e657281525060200191505060405180910390fd5b600073ffffffffffffffffffffffffffffffffffffffff16600160009054906101000a900473ffffffffffffffffffffffffffffffffffffffff1673ffffffffffffffffffffffffffffffffffffffff167f8be0079c531659141344cd1fd0a4f28419497f9722a3daafe3b4186f6b6457e060405160405180910390a36000600160006101000a81548173ffffffffffffffffffffffffffffffffffffffff021916908373ffffffffffffffffffffffffffffffffffffffff160217905550565b60035481565b6000600160009054906101000a900473ffffffffffffffffffffffffffffffffffffffff16905090565b7f000000000000000000000000000000000000000000000000000000000000000073ffffffffffffffffffffffffffffffffffffffff163373ffffffffffffffffffffffffffffffffffffffff1614610afb576040517f08c379a000000000000000000000000000000000000000000000000000000000815260040180806020018281038252601f8152602001807f4f6e6c7920565246436f6f7264696e61746f722063616e2066756c66696c6c0081525060200191505060405180910390fd5b610b058282610f50565b5050565b60075481565b600460009054906101000a900473ffffffffffffffffffffffffffffffffffffffff1681565b610b3d610465565b341015610bb2576040517f08c379a00000000000000000000000000000000000000000000000000000000081526004018080602001828103825260188152602001807f4e6f7420656e6f7567682045544820746f20656e74657221000000000000000081525060200191505060405180910390fd5b60006002811115610bbf57fe5b600160149054906101000a900460ff166002811115610bda57fe5b14610be457600080fd5b6005339080600181540180825580915050600190039060005260206000200160009091909190916101000a81548173ffffffffffffffffffffffffffffffffffffffff021916908373ffffffffffffffffffffffffffffffffffffffff160217905550565b610c51610e7a565b73ffffffffffffffffffffffffffffffffffffffff16610c6f610a10565b73ffffffffffffffffffffffffffffffffffffffff1614610cf8576040517f08c379a00000000000000000000000000000000000000000000000000000000081526004018080602001828103825260208152602001807f4f776e61626c653a2063616c6c6572206973206e6f7420746865206f776e657281525060200191505060405180910390fd5b600073ffffffffffffffffffffffffffffffffffffffff168173ffffffffffffffffffffffffffffffffffffffff161415610d7e576040517f08c379a000000000000000000000000000000000000000000000000000000000815260040180806020018281038252602681526020018061156d6026913960400191505060405180910390fd5b8073ffffffffffffffffffffffffffffffffffffffff16600160009054906101000a900473ffffffffffffffffffffffffffffffffffffffff1673ffffffffffffffffffffffffffffffffffffffff167f8be0079c531659141344cd1fd0a4f28419497f9722a3daafe3b4186f6b6457e060405160405180910390a380600160006101000a81548173ffffffffffffffffffffffffffffffffffffffff021916908373ffffffffffffffffffffffffffffffffffffffff16021790555050565b60058181548110610e4b57fe5b906000526020600020016000915054906101000a900473ffffffffffffffffffffffffffffffffffffffff1681565b600033905090565b6000600280811115610e9057fe5b600160149054906101000a900460ff166002811115610eab57fe5b14610f01576040517f08c379a00000000000000000000000000000000000000000000000000000000081526004018080602001828103825260238152602001806115936023913960400191505060405180910390fd5b6000610f11600854600754611158565b90507fe5f5b44d72d4143c278eb745c4acc0695c4a5bc616be5beecf46abe29661780e816040518082815260200191505060405180910390a150919050565b60008111610fc6576040517f08c379a00000000000000000000000000000000000000000000000000000000081526004018080602001828103825260178152602001807f72616e646f6d206e756d626572206e6f7420666f756e6400000000000000000081525060200191505060405180910390fd5b60006005805490508281610fd657fe5b06905060058181548110610fe657fe5b9060005260206000200160009054906101000a900473ffffffffffffffffffffffffffffffffffffffff1673ffffffffffffffffffffffffffffffffffffffff166108fc479081150290604051600060405180830381858888f19350505050158015611056573d6000803e3d6000fd5b506005818154811061106457fe5b9060005260206000200160009054906101000a900473ffffffffffffffffffffffffffffffffffffffff16600460006101000a81548173ffffffffffffffffffffffffffffffffffffffff021916908373ffffffffffffffffffffffffffffffffffffffff160217905550600067ffffffffffffffff811180156110e757600080fd5b506040519080825280602002602001820160405280156111165781602001602082028036833780820191505090505b506005908051906020019061112c92919061149f565b5060018060146101000a81548160ff0219169083600281111561114b57fe5b0217905550819150505050565b60007f000000000000000000000000000000000000000000000000000000000000000073ffffffffffffffffffffffffffffffffffffffff16634000aea07f00000000000000000000000000000000000000000000000000000000000000008486600060405160200180838152602001828152602001925050506040516020818303038152906040526040518463ffffffff1660e01b8152600401808473ffffffffffffffffffffffffffffffffffffffff1673ffffffffffffffffffffffffffffffffffffffff16815260200183815260200180602001828103825283818151815260200191508051906020019080838360005b8381101561126857808201518184015260208101905061124d565b50505050905090810190601f1680156112955780820380516001836020036101000a031916815260200191505b50945050505050602060405180830381600087803b1580156112b657600080fd5b505af11580156112ca573d6000803e3d6000fd5b505050506040513d60208110156112e057600080fd5b81019080805190602001909291905050505060006113138460003060008089815260200190815260200160002054611364565b905061133b6001600080878152602001908152602001600020546113de90919063ffffffff16565b6000808681526020019081526020016000208190555061135b8482611466565b91505092915050565b600084848484604051602001808581526020018481526020018373ffffffffffffffffffffffffffffffffffffffff1673ffffffffffffffffffffffffffffffffffffffff1681526020018281526020019450505050506040516020818303038152906040528051906020012060001c9050949350505050565b60008082840190508381101561145c576040517f08c379a000000000000000000000000000000000000000000000000000000000815260040180806020018281038252601b8152602001807f536166654d6174683a206164646974696f6e206f766572666c6f77000000000081525060200191505060405180910390fd5b8091505092915050565b60008282604051602001808381526020018281526020019250505060405160208183030381529060405280519060200120905092915050565b828054828255906000526020600020908101928215611518579160200282015b828111156115175782518260006101000a81548173ffffffffffffffffffffffffffffffffffffffff021916908373ffffffffffffffffffffffffffffffffffffffff160217905550916020019190600101906114bf565b5b5090506115259190611529565b5090565b61156991905b8082111561156557600081816101000a81549073ffffffffffffffffffffffffffffffffffffffff02191690555060010161152f565b5090565b9056fe4f776e61626c653a206e6577206f776e657220697320746865207a65726f20616464726573734e6565647320746f2062652063616c63756c6174696e67207468652077696e6e657221a2646970667358221220e3a347e0eb485fe0ea98940a6fab2b69b26b48bf64ac5152776dc5c91a2fd08864736f6c63430006060033",
  "immutableReferences": {
    "76": [
      {
        "length": 32,
        "start": 4444
      }
    ],
    "78": [
      {
        "length": 32,
        "start": 2620
      },
      {
        "length": 32,
        "start": 4504
      }
    ]
  },
  "source": "pragma solidity ^0.6.6;\r\n\r\nimport \"@chainlink/contracts/src/v0.6/interfaces/AggregatorV3Interface.sol\";\r\nimport \"@chainlink/contracts/src/v0.6/vendor/SafeMathChainlink.sol\";\r\nimport \"@openzeppelin/contracts/access/Ownable.sol\";\r\nimport \"@chainlink/contracts/src/v0.6/VRFConsumerBase.sol\";\r\n\r\n\r\ncontract Lottery is VRFConsumerBase, Ownable {\r\n    using SafeMathChainlink for uint256;\r\n\r\n    enum LOTTERY_STATE {OPEN,CLOSED,CALCULATING_WINNER}\r\n    LOTTERY_STATE public lotteryState;\r\n    AggregatorV3Interface internal ethUsdPriceFeed;\r\n    uint256 public usdEntryFee;\r\n    address public recentWinners;\r\n    address payable[] public players;\r\n    uint256 public randomness;\r\n    uint256 public fee;\r\n    bytes32 public keyHash;\r\n    event RequestedRandomness(bytes32 requestId);\r\n\r\n\r\n    constructor(address _ethUsdPriceFeed, address _vrfCoordinator, address _link, bytes32 _keyHash) \r\n        VRFConsumerBase(\r\n            _vrfCoordinator,\r\n            _link\r\n        )public {\r\n        ethUsdPriceFeed = AggregatorV3Interface(_ethUsdPriceFeed);\r\n        usdEntryFee = 50;\r\n        lotteryState = LOTTERY_STATE.CLOSED;\r\n        fee = 100000000000000000; // 0.1 LINK\r\n        keyHash = _keyHash;\r\n\r\n    }\r\n    function enter() public payable {\r\n        require(msg.value >= getEntranceFee(), \"Not enough ETH to enter!\");\r\n        require(lotteryState == LOTTERY_STATE.OPEN);\r\n        players.push(msg.sender);\r\n\r\n    }\r\n    function getEntranceFee() public view returns(uint256){\r\n        uint256 precision = 1 * 10 ** 18;\r\n        uint256 price = getLatestEthUsdPrice(); //8 decimals\r\n        uint256 costToEnter = (precision / price) * (usdEntryFee * 10000000);\r\n        return costToEnter;\r\n\r\n\r\n    }\r\n    function getLatestEthUsdPrice() public view returns (uint256){\r\n         (\r\n            uint80 roundID,\r\n            int price,\r\n            uint startedAt,\r\n            uint timeStamp,\r\n            uint80 answeredInRound \r\n        ) = ethUsdPriceFeed.latestRoundData();\r\n        return uint256(price);\r\n\r\n    }\r\n\r\n    //Access control functions\r\n\r\n    function startLottery() public onlyOwner {\r\n        require(lotteryState == LOTTERY_STATE.CLOSED, \"Can't start a new lottery\");\r\n        lotteryState = LOTTERY_STATE.OPEN;\r\n        randomness = 0;\r\n\r\n    }\r\n\r\n    function endLottery(uint256 userProvidedSeed) public onlyOwner{\r\n        require(lotteryState == LOTTERY_STATE.OPEN, \"Can't end lottery yet\");\r\n        lotteryState = LOTTERY_STATE.CALCULATING_WINNER;\r\n        pickWinner(userProvidedSeed);\r\n\r\n\r\n    }\r\n    function pickWinner(uint256 userProvidedSeed) private returns(bytes32) {\r\n        require(lotteryState == LOTTERY_STATE.CALCULATING_WINNER, \"Needs to be calculating the winner!\");\r\n        bytes32 requestId = requestRandomness(keyHash, fee);\r\n        emit RequestedRandomness(requestId);\r\n\r\n    }\r\n    function fulfillRandomness(bytes32 requestId, uint256 randomness)internal override{\r\n        require(randomness > 0, \"random number not found\");\r\n        uint256 index = randomness % players.length;\r\n        players[index].transfer(address(this).balance);\r\n        recentWinners = players[index];\r\n        players = new address payable[](0);\r\n        lotteryState = LOTTERY_STATE.CLOSED;\r\n        randomness = randomness;\r\n\r\n    }\r\n}",
  "sourcePath": "C:\\Users\\jflor\\Documents\\Solidity-Lottery\\contracts\\Lottery.sol",
  "compiler": {
    "name": "solc",
    "version": "0.6.6+commit.6c089d02.Emscripten.clang"
  },
  "schemaVersion": "3.4.3",
  "updatedAt": "2021-11-13T02:06:01.941Z",
  "devdoc": {
    "methods": {
      "owner()": {
        "details": "Returns the address of the current owner."
      },
      "renounceOwnership()": {
        "details": "Leaves the contract without owner. It will not be possible to call `onlyOwner` functions anymore. Can only be called by the current owner.     * NOTE: Renouncing ownership will leave the contract without an owner, thereby removing any functionality that is only available to the owner."
      },
      "transferOwnership(address)": {
        "details": "Transfers ownership of the contract to a new account (`newOwner`). Can only be called by the current owner."
      }
    }
  },
  "userdoc": {
    "methods": {}
  }
}